{
  "contractName": "MultiSigWallet",
  "abi": [
    {
      "inputs": [
        {
          "internalType": "address[]",
          "name": "_owners",
          "type": "address[]"
        },
        {
          "internalType": "uint256",
          "name": "_requiredConfirmationCount",
          "type": "uint256"
        },
        {
          "internalType": "address",
          "name": "_finalFundReceiver",
          "type": "address"
        }
      ],
      "stateMutability": "nonpayable",
      "type": "constructor"
    },
    {
      "anonymous": false,
      "inputs": [
        {
          "indexed": true,
          "internalType": "address",
          "name": "owner",
          "type": "address"
        },
        {
          "indexed": true,
          "internalType": "uint256",
          "name": "depositId",
          "type": "uint256"
        }
      ],
      "name": "Confirmation",
      "type": "event"
    },
    {
      "anonymous": false,
      "inputs": [
        {
          "indexed": true,
          "internalType": "address",
          "name": "depositor",
          "type": "address"
        },
        {
          "indexed": false,
          "internalType": "uint256",
          "name": "amount",
          "type": "uint256"
        },
        {
          "indexed": false,
          "internalType": "uint256",
          "name": "confirmationCount",
          "type": "uint256"
        }
      ],
      "name": "DepositMade",
      "type": "event"
    },
    {
      "anonymous": false,
      "inputs": [
        {
          "indexed": false,
          "internalType": "uint256",
          "name": "totalAmount",
          "type": "uint256"
        }
      ],
      "name": "Execution",
      "type": "event"
    },
    {
      "inputs": [],
      "name": "depositCount",
      "outputs": [
        {
          "internalType": "uint256",
          "name": "",
          "type": "uint256"
        }
      ],
      "stateMutability": "view",
      "type": "function"
    },
    {
      "inputs": [
        {
          "internalType": "uint256",
          "name": "",
          "type": "uint256"
        }
      ],
      "name": "deposits",
      "outputs": [
        {
          "internalType": "address",
          "name": "depositor",
          "type": "address"
        },
        {
          "internalType": "uint256",
          "name": "amount",
          "type": "uint256"
        },
        {
          "internalType": "uint256",
          "name": "confirmationCount",
          "type": "uint256"
        }
      ],
      "stateMutability": "view",
      "type": "function"
    },
    {
      "inputs": [],
      "name": "finalFundReceiver",
      "outputs": [
        {
          "internalType": "address",
          "name": "",
          "type": "address"
        }
      ],
      "stateMutability": "view",
      "type": "function"
    },
    {
      "inputs": [
        {
          "internalType": "address",
          "name": "",
          "type": "address"
        }
      ],
      "name": "isOwner",
      "outputs": [
        {
          "internalType": "bool",
          "name": "",
          "type": "bool"
        }
      ],
      "stateMutability": "view",
      "type": "function"
    },
    {
      "inputs": [
        {
          "internalType": "uint256",
          "name": "",
          "type": "uint256"
        }
      ],
      "name": "owners",
      "outputs": [
        {
          "internalType": "address",
          "name": "",
          "type": "address"
        }
      ],
      "stateMutability": "view",
      "type": "function"
    },
    {
      "inputs": [],
      "name": "requiredConfirmationCount",
      "outputs": [
        {
          "internalType": "uint256",
          "name": "",
          "type": "uint256"
        }
      ],
      "stateMutability": "view",
      "type": "function"
    },
    {
      "stateMutability": "payable",
      "type": "receive"
    },
    {
      "inputs": [
        {
          "internalType": "uint256",
          "name": "_depositId",
          "type": "uint256"
        }
      ],
      "name": "confirmDeposit",
      "outputs": [],
      "stateMutability": "nonpayable",
      "type": "function"
    }
  ],
  "bytecode": "0x60806040523480156200001157600080fd5b506040516200167d3803806200167d83398181016040528101906200003791906200048f565b60008351116200007e576040517f08c379a000000000000000000000000000000000000000000000000000000000815260040162000075906200066a565b60405180910390fd5b60008211801562000090575082518211155b620000d2576040517f08c379a0000000000000000000000000000000000000000000000000000000008152600401620000c99062000648565b60405180910390fd5b600073ffffffffffffffffffffffffffffffffffffffff168173ffffffffffffffffffffffffffffffffffffffff16141562000145576040517f08c379a00000000000000000000000000000000000000000000000000000000081526004016200013c906200068c565b60405180910390fd5b60005b83518110156200036d5760008482815181106200018e577f4e487b7100000000000000000000000000000000000000000000000000000000600052603260045260246000fd5b60200260200101519050600073ffffffffffffffffffffffffffffffffffffffff168173ffffffffffffffffffffffffffffffffffffffff1614156200020b576040517f08c379a00000000000000000000000000000000000000000000000000000000081526004016200020290620006d0565b60405180910390fd5b600260008273ffffffffffffffffffffffffffffffffffffffff1673ffffffffffffffffffffffffffffffffffffffff16815260200190815260200160002060009054906101000a900460ff16156200029b576040517f08c379a00000000000000000000000000000000000000000000000000000000081526004016200029290620006ae565b60405180910390fd5b6001600260008373ffffffffffffffffffffffffffffffffffffffff1673ffffffffffffffffffffffffffffffffffffffff16815260200190815260200160002060006101000a81548160ff0219169083151502179055506000819080600181540180825580915050600190039060005260206000200160009091909190916101000a81548173ffffffffffffffffffffffffffffffffffffffff021916908373ffffffffffffffffffffffffffffffffffffffff1602179055505080806200036490620007a4565b91505062000148565b508160038190555080600160006101000a81548173ffffffffffffffffffffffffffffffffffffffff021916908373ffffffffffffffffffffffffffffffffffffffff16021790555050505062000884565b6000620003d6620003d08462000726565b620006f2565b90508083825260208201905082856020860282011115620003f657600080fd5b60005b858110156200042a57816200040f888262000434565b845260208401935060208301925050600181019050620003f9565b5050509392505050565b600081519050620004458162000850565b92915050565b600082601f8301126200045d57600080fd5b81516200046f848260208601620003bf565b91505092915050565b60008151905062000489816200086a565b92915050565b600080600060608486031215620004a557600080fd5b600084015167ffffffffffffffff811115620004c057600080fd5b620004ce868287016200044b565b9350506020620004e18682870162000478565b9250506040620004f48682870162000434565b9150509250925092565b60006200050d601f8362000755565b91507f496e76616c6964206e756d626572206f6620636f6e6669726d6174696f6e73006000830152602082019050919050565b60006200054f600f8362000755565b91507f4f776e65727320726571756972656400000000000000000000000000000000006000830152602082019050919050565b600062000591601c8362000755565b91507f496e76616c69642064657374696e6174696f6e206163636f756e7421000000006000830152602082019050919050565b6000620005d360108362000755565b91507f4475706c6963617465206f776e657221000000000000000000000000000000006000830152602082019050919050565b600062000615600e8362000755565b91507f496e76616c6964206f776e6572210000000000000000000000000000000000006000830152602082019050919050565b600060208201905081810360008301526200066381620004fe565b9050919050565b60006020820190508181036000830152620006858162000540565b9050919050565b60006020820190508181036000830152620006a78162000582565b9050919050565b60006020820190508181036000830152620006c981620005c4565b9050919050565b60006020820190508181036000830152620006eb8162000606565b9050919050565b6000604051905081810181811067ffffffffffffffff821117156200071c576200071b62000821565b5b8060405250919050565b600067ffffffffffffffff82111562000744576200074362000821565b5b602082029050602081019050919050565b600082825260208201905092915050565b600062000773826200077a565b9050919050565b600073ffffffffffffffffffffffffffffffffffffffff82169050919050565b6000819050919050565b6000620007b1826200079a565b91507fffffffffffffffffffffffffffffffffffffffffffffffffffffffffffffffff821415620007e757620007e6620007f2565b5b600182019050919050565b7f4e487b7100000000000000000000000000000000000000000000000000000000600052601160045260246000fd5b7f4e487b7100000000000000000000000000000000000000000000000000000000600052604160045260246000fd5b6200085b8162000766565b81146200086757600080fd5b50565b62000875816200079a565b81146200088157600080fd5b50565b610de980620008946000396000f3fe6080604052600436106100745760003560e01c80632f54bf6e1161004e5780632f54bf6e1461027a57806363377bcb146102b7578063b02c43d0146102e0578063e603bcca1461031f576101e2565b8063025e7c27146101e7578063197e86ea146102245780632dfdf0b51461024f576101e2565b366101e257600034116100bc576040517f08c379a00000000000000000000000000000000000000000000000000000000081526004016100b390610b7d565b60405180910390fd5b34600460008282546100ce9190610c5d565b92505081905550600560405180606001604052803373ffffffffffffffffffffffffffffffffffffffff1681526020013481526020016000815250908060018154018082558091505060019003906000526020600020906003020160009091909190915060008201518160000160006101000a81548173ffffffffffffffffffffffffffffffffffffffff021916908373ffffffffffffffffffffffffffffffffffffffff160217905550602082015181600101556040820151816002015550503373ffffffffffffffffffffffffffffffffffffffff167f0b05f0d1cd0819f155b8a61f60baf7767c1ee49d04aeaab701df236140eb93f93460006040516101d8929190610c18565b60405180910390a2005b600080fd5b3480156101f357600080fd5b5061020e60048036038101906102099190610896565b61034a565b60405161021b9190610ad0565b60405180910390f35b34801561023057600080fd5b50610239610389565b6040516102469190610ad0565b60405180910390f35b34801561025b57600080fd5b506102646103af565b6040516102719190610bfd565b60405180910390f35b34801561028657600080fd5b506102a1600480360381019061029c919061086d565b6103b5565b6040516102ae9190610b22565b60405180910390f35b3480156102c357600080fd5b506102de60048036038101906102d99190610896565b6103d5565b005b3480156102ec57600080fd5b5061030760048036038101906103029190610896565b6105fb565b60405161031693929190610aeb565b60405180910390f35b34801561032b57600080fd5b50610334610655565b6040516103419190610bfd565b60405180910390f35b6000818154811061035a57600080fd5b906000526020600020016000915054906101000a900473ffffffffffffffffffffffffffffffffffffffff1681565b600160009054906101000a900473ffffffffffffffffffffffffffffffffffffffff1681565b60045481565b60026020528060005260406000206000915054906101000a900460ff1681565b600260003373ffffffffffffffffffffffffffffffffffffffff1673ffffffffffffffffffffffffffffffffffffffff16815260200190815260200160002060009054906101000a900460ff16610461576040517f08c379a000000000000000000000000000000000000000000000000000000000815260040161045890610bbd565b60405180910390fd5b8060058054905081106104a9576040517f08c379a00000000000000000000000000000000000000000000000000000000081526004016104a090610b9d565b60405180910390fd5b81600354600582815481106104e7577f4e487b7100000000000000000000000000000000000000000000000000000000600052603260045260246000fd5b90600052602060002090600302016002015410610539576040517f08c379a000000000000000000000000000000000000000000000000000000000815260040161053090610bdd565b60405180910390fd5b600160058481548110610575577f4e487b7100000000000000000000000000000000000000000000000000000000600052603260045260246000fd5b906000526020600020906003020160020160008282546105959190610c5d565b92505081905550823373ffffffffffffffffffffffffffffffffffffffff167f4a504a94899432a9846e1aa406dceb1bcfd538bb839071d49d1e5e23f5be30ef60405160405180910390a36105e861065b565b156105f6576105f56106ea565b5b505050565b6005818154811061060b57600080fd5b90600052602060002090600302016000915090508060000160009054906101000a900473ffffffffffffffffffffffffffffffffffffffff16908060010154908060020154905083565b60035481565b600080600090505b6005805490508110156106e157600354600582815481106106ad577f4e487b7100000000000000000000000000000000000000000000000000000000600052603260045260246000fd5b906000526020600020906003020160020154146106ce5760009150506106e7565b80806106d990610d0d565b915050610663565b50600190505b90565b60006004541161072f576040517f08c379a000000000000000000000000000000000000000000000000000000000815260040161072690610b5d565b60405180910390fd5b6000600160009054906101000a900473ffffffffffffffffffffffffffffffffffffffff1673ffffffffffffffffffffffffffffffffffffffff1660045460405161077990610abb565b60006040518083038185875af1925050503d80600081146107b6576040519150601f19603f3d011682016040523d82523d6000602084013e6107bb565b606091505b50509050806107ff576040517f08c379a00000000000000000000000000000000000000000000000000000000081526004016107f690610b3d565b60405180910390fd5b7f33e13ecb54c3076d8e8bb8c2881800a4d972b792045ffae98fdf46df365fed756004546040516108309190610bfd565b60405180910390a1600060048190555050565b60008135905061085281610d85565b92915050565b60008135905061086781610d9c565b92915050565b60006020828403121561087f57600080fd5b600061088d84828501610843565b91505092915050565b6000602082840312156108a857600080fd5b60006108b684828501610858565b91505092915050565b6108c881610cb3565b82525050565b6108d781610cc5565b82525050565b6108e681610cfb565b82525050565b60006108f9601883610c4c565b91507f4661696c656420746f207472616e736665722066756e647300000000000000006000830152602082019050919050565b6000610939601683610c4c565b91507f4e6f206465706f7369747320746f2065786563757465000000000000000000006000830152602082019050919050565b6000610979602683610c4c565b91507f4465706f73697420616d6f756e74206d7573742062652067726561746572207460008301527f68616e20302100000000000000000000000000000000000000000000000000006020830152604082019050919050565b60006109df601a83610c4c565b91507f4465706f73697420494420646f6573206e6f74206578697374210000000000006000830152602082019050919050565b6000610a1f600d83610c4c565b91507f4e6f7420616e206f776e657221000000000000000000000000000000000000006000830152602082019050919050565b6000610a5f600083610c41565b9150600082019050919050565b6000610a79601d83610c4c565b91507f4465706f73697420697320616c726561647920636f6e6669726d6564210000006000830152602082019050919050565b610ab581610cf1565b82525050565b6000610ac682610a52565b9150819050919050565b6000602082019050610ae560008301846108bf565b92915050565b6000606082019050610b0060008301866108bf565b610b0d6020830185610aac565b610b1a6040830184610aac565b949350505050565b6000602082019050610b3760008301846108ce565b92915050565b60006020820190508181036000830152610b56816108ec565b9050919050565b60006020820190508181036000830152610b768161092c565b9050919050565b60006020820190508181036000830152610b968161096c565b9050919050565b60006020820190508181036000830152610bb6816109d2565b9050919050565b60006020820190508181036000830152610bd681610a12565b9050919050565b60006020820190508181036000830152610bf681610a6c565b9050919050565b6000602082019050610c126000830184610aac565b92915050565b6000604082019050610c2d6000830185610aac565b610c3a60208301846108dd565b9392505050565b600081905092915050565b600082825260208201905092915050565b6000610c6882610cf1565b9150610c7383610cf1565b9250827fffffffffffffffffffffffffffffffffffffffffffffffffffffffffffffffff03821115610ca857610ca7610d56565b5b828201905092915050565b6000610cbe82610cd1565b9050919050565b60008115159050919050565b600073ffffffffffffffffffffffffffffffffffffffff82169050919050565b6000819050919050565b6000610d0682610cf1565b9050919050565b6000610d1882610cf1565b91507fffffffffffffffffffffffffffffffffffffffffffffffffffffffffffffffff821415610d4b57610d4a610d56565b5b600182019050919050565b7f4e487b7100000000000000000000000000000000000000000000000000000000600052601160045260246000fd5b610d8e81610cb3565b8114610d9957600080fd5b50565b610da581610cf1565b8114610db057600080fd5b5056fea26469706673582212209dca8ad6abc8ffd38603483cfb141f7d71ced0cbae65ae1fb70a35718311f55864736f6c63430008000033",
  "immutableReferences": {},
  "source": "// SPDX-License-Identifier: MIT\r\npragma solidity ^0.8.0;\r\n\r\ncontract MultiSigWallet {\r\n    address[] public owners;\r\n    address public finalFundReceiver;\r\n    mapping(address => bool) public isOwner;\r\n    uint public requiredConfirmationCount;\r\n\r\n    uint public depositCount;\r\n    struct Deposit {\r\n        address depositor;\r\n        uint amount;\r\n        uint confirmationCount;\r\n    }\r\n\r\n    Deposit[] public deposits;\r\n\r\n    event DepositMade(address indexed depositor, uint amount, uint confirmationCount);\r\n    event Confirmation(address indexed owner, uint indexed depositId);\r\n    event Execution(uint totalAmount);\r\n\r\n    modifier checkOwner() {\r\n        require(isOwner[msg.sender], \"Not an owner!\");\r\n        _;\r\n    }\r\n\r\n    modifier checkDeposit(uint _depositId) {\r\n        require(_depositId < deposits.length, \"Deposit ID does not exist!\");\r\n        _;\r\n    }\r\n\r\n    modifier notConfirmed(uint _depositId) {\r\n        require(deposits[_depositId].confirmationCount < requiredConfirmationCount, \"Deposit is already confirmed!\");\r\n        _;\r\n    }\r\n\r\n    constructor(address[] memory _owners, uint _requiredConfirmationCount, address _finalFundReceiver) {\r\n        require(_owners.length > 0, \"Owners required\");\r\n        require(_requiredConfirmationCount > 0 && _requiredConfirmationCount <= _owners.length, \"Invalid number of confirmations\");\r\n        require(_finalFundReceiver != address(0), \"Invalid destination account!\");\r\n\r\n        for (uint i = 0; i < _owners.length; i++) {\r\n            address owner = _owners[i];\r\n            require(owner != address(0), \"Invalid owner!\");\r\n            require(!isOwner[owner], \"Duplicate owner!\");\r\n            isOwner[owner] = true;\r\n            owners.push(owner);\r\n        }\r\n\r\n        requiredConfirmationCount = _requiredConfirmationCount;\r\n        finalFundReceiver = _finalFundReceiver;\r\n    }\r\n\r\n    receive() external payable {\r\n        require(msg.value > 0, \"Deposit amount must be greater than 0!\");\r\n        depositCount += msg.value;\r\n        deposits.push(Deposit(msg.sender, msg.value, 0));\r\n        emit DepositMade(msg.sender, msg.value, 0);\r\n    }\r\n\r\n    function confirmDeposit(uint _depositId) public checkOwner checkDeposit(_depositId) notConfirmed(_depositId) {\r\n        deposits[_depositId].confirmationCount += 1;\r\n        emit Confirmation(msg.sender, _depositId);\r\n        if (isAllDepositsConfirmed()) {\r\n            transferFunds();\r\n        }\r\n    }\r\n\r\n    function isAllDepositsConfirmed() internal view returns (bool) {\r\n        for (uint i = 0; i < deposits.length; i++) {\r\n            if (deposits[i].confirmationCount != requiredConfirmationCount) {\r\n                return false;\r\n            }\r\n        }\r\n        return true;\r\n    }\r\n\r\n    function transferFunds() internal {\r\n        require(depositCount > 0, \"No deposits to execute\");\r\n        (bool success, ) = finalFundReceiver.call{value: depositCount}(\"\");\r\n        require(success, \"Failed to transfer funds\");\r\n        emit Execution(depositCount);\r\n        depositCount = 0;\r\n    }\r\n\r\n    // function getGreeting() public pure returns (string memory) {\r\n        // return \"Hello Austris :) This function is for test purposes and just a sanity check\";\r\n    // }\r\n}\r\n",
  "sourcePath": "C:\\Users\\austr\\OneDrive\\Dators\\RTU_magistri\\MAGISTRA_DARBS\\truffle_mag\\contracts\\MultiSigWallet.sol",
  "compiler": {
    "name": "solc",
    "version": "0.8.0+commit.c7dfd78e.Emscripten.clang"
  },
  "schemaVersion": "3.4.16",
  "updatedAt": "2024-04-08T17:41:43.674Z",
  "devdoc": {
    "kind": "dev",
    "methods": {},
    "version": 1
  },
  "userdoc": {
    "kind": "user",
    "methods": {},
    "version": 1
  }
}